:020000002928AD
:100008007E14803120007F08F4000B1D24280A305C
:1000180095000B112D087802031D14282C0877026F
:10002800031822280130F0000030F1006821250073
:1000380091000130F7070030F83D24282500910190
:1000480074082000FF007E1009002A28BB21AE009A
:10005800BC21AF007E102000EC2820002E082F04C1
:10006800031D62282D08F8002C08F7006830A50049
:10007800E430A400A40B3E28A50B3E280000003065
:10008800F500F60050212500910068302000A500F9
:10009800E430A400A40B4E28A50B4E280000AB2189
:1000A80002302000A6003830A500AD30A400A40B13
:1000B8005B28A50B5B28A60B5B2865282000AE01F2
:1000C800AF01200023088500220884008435850DAF
:1000D800863084078130853D0008A4002408A800E4
:1000E80023088500220884008435850D863084071E
:1000F8008130853D003FA400013FA5002508A600EA
:100108002608A700AF210B302000A5006230A4000C
:10011800A40B8C28A50B8C280000A030A5210B303F
:100128002000A5006230A400A40B9828A50B9828ED
:10013800000020002708A5210B302000A500623010
:10014800A400A40BA528A50BA528000020002808BA
:10015800A52168302000A500E430A400A40BB22833
:10016800A50BB2280000B3210B302000A500623097
:10017800A400A40BBD28A50BBD280000A130A52113
:1001880068302000A500E430A400A40BC928A50B02
:10019800C9280000F701F80120002308850022087B
:1001A80084008435850D7E3084078130853D003F8D
:1001B800AC00013FAD002930A6009630A500A6305E
:1001C800A400A40BE528A50BE528A60BE528080044
:1001D80070302100990023008C011F3021008C0011
:1001E8001F3024008C0020008C0122001D140C30CC
:1001F8002500930020009C01250091019201200018
:100208009A01FF309B001C15013021009500200049
:1002180095010B118B168B177E3084008130850079
:10022800003FAC00013FAD002D08F8002C08F70096
:100238009E2115302000AB004B30AA00D130A90018
:10024800A90B2429AA0B2429AB0B24290000200080
:100258000C1832290030A200A300312020008C198C
:100268003A290130A2000030A300312020000C1AE6
:1002780042290230A2000030A300312005302000BE
:10028800AB000F30AA00F430A900A90B4929AA0B2A
:100298004929AB0B49292B29240096158E212400C6
:1002A80011082000A0002008A1008E2175087604FE
:1002B800031961292400961263292400961616163C
:1002C8008E2120002108080024009615962124007C
:1002D8001108F2007208F3009621700871040319DE
:1002E8007829240096127A29240096161616962143
:1002F80073080800FC341334CD341F3470340934C7
:100308008E34013400340034003420340034403456
:1003180000346034240016081F39031D8E29141D6B
:1003280008008E29240016081F39031D9629141D5C
:100338000800962924009401133092002830950073
:100348000800F5007508240091008E21080024009B
:1003580016158E210800240016148E21080024008A
:1003680096148E21080008302400950008000134F6
:0203780000344F
:020000040001F9
:04000E0084CFFFDFBD
:00000001FF
